{
  "_format": "hh-sol-artifact-1",
  "contractName": "XPost",
  "sourceName": "contracts/XPost.sol",
  "abi": [
    {
      "inputs": [],
      "stateMutability": "payable",
      "type": "constructor"
    },
    {
      "anonymous": false,
      "inputs": [
        {
          "indexed": true,
          "internalType": "address",
          "name": "from",
          "type": "address"
        },
        {
          "indexed": false,
          "internalType": "uint256",
          "name": "timestamp",
          "type": "uint256"
        },
        {
          "indexed": false,
          "internalType": "string",
          "name": "message",
          "type": "string"
        }
      ],
      "name": "NewPost",
      "type": "event"
    },
    {
      "inputs": [
        {
          "internalType": "string",
          "name": "_message",
          "type": "string"
        }
      ],
      "name": "createPost",
      "outputs": [],
      "stateMutability": "nonpayable",
      "type": "function"
    },
    {
      "inputs": [],
      "name": "getAllPosts",
      "outputs": [
        {
          "components": [
            {
              "internalType": "address",
              "name": "sender",
              "type": "address"
            },
            {
              "internalType": "string",
              "name": "message",
              "type": "string"
            },
            {
              "internalType": "uint256",
              "name": "timestamp",
              "type": "uint256"
            }
          ],
          "internalType": "struct XPost.Post[]",
          "name": "",
          "type": "tuple[]"
        }
      ],
      "stateMutability": "view",
      "type": "function"
    },
    {
      "inputs": [],
      "name": "getTotalPosts",
      "outputs": [
        {
          "internalType": "uint256",
          "name": "",
          "type": "uint256"
        }
      ],
      "stateMutability": "view",
      "type": "function"
    },
    {
      "inputs": [
        {
          "internalType": "address",
          "name": "",
          "type": "address"
        }
      ],
      "name": "lastPostedAt",
      "outputs": [
        {
          "internalType": "uint256",
          "name": "",
          "type": "uint256"
        }
      ],
      "stateMutability": "view",
      "type": "function"
    }
  ],
  "bytecode": "0x60806040526200004a6040518060400160405280601e81526020017f54686520636f6e747261637420686173206265656e20637265617465642100008152506200007260201b60201c565b606444426200005a9190620001b8565b62000066919062000222565b60018190555062000347565b6200011281604051602401620000899190620002f4565b6040516020818303038152906040527f41304fac000000000000000000000000000000000000000000000000000000007bffffffffffffffffffffffffffffffffffffffffffffffffffffffff19166020820180517bffffffffffffffffffffffffffffffffffffffffffffffffffffffff83818316178352505050506200011560201b60201c565b50565b6200013b81620001366200013e60201b62000622176200015f60201b60201c565b60201c565b50565b60006a636f6e736f6c652e6c6f679050600080835160208501845afa505050565b6200017360201b620007a017819050919050565b6200017d62000318565b565b6000819050919050565b7f4e487b7100000000000000000000000000000000000000000000000000000000600052601160045260246000fd5b6000620001c5826200017f565b9150620001d2836200017f565b9250828201905080821115620001ed57620001ec62000189565b5b92915050565b7f4e487b7100000000000000000000000000000000000000000000000000000000600052601260045260246000fd5b60006200022f826200017f565b91506200023c836200017f565b9250826200024f576200024e620001f3565b5b828206905092915050565b600081519050919050565b600082825260208201905092915050565b60005b838110156200029657808201518184015260208101905062000279565b60008484015250505050565b6000601f19601f8301169050919050565b6000620002c0826200025a565b620002cc818562000265565b9350620002de81856020860162000276565b620002e981620002a2565b840191505092915050565b60006020820190508181036000830152620003108184620002b3565b905092915050565b7f4e487b7100000000000000000000000000000000000000000000000000000000600052605160045260246000fd5b6112ea80620003576000396000f3fe608060405234801561001057600080fd5b506004361061004c5760003560e01c8063305611001461005157806351493c4f1461006f5780635fe226b41461009f578063c7303c61146100bd575b600080fd5b6100596100d9565b60405161006691906109a6565b60405180910390f35b61008960048036038101906100849190610a08565b61022a565b6040516100969190610a44565b60405180910390f35b6100a7610242565b6040516100b49190610a44565b60405180910390f35b6100d760048036038101906100d29190610b94565b61028d565b005b60606002805480602002602001604051908101604052809291908181526020016000905b8282101561022157838290600052602060002090600302016040518060600160405290816000820160009054906101000a900473ffffffffffffffffffffffffffffffffffffffff1673ffffffffffffffffffffffffffffffffffffffff1673ffffffffffffffffffffffffffffffffffffffff16815260200160018201805461018690610c0c565b80601f01602080910402602001604051908101604052809291908181526020018280546101b290610c0c565b80156101ff5780601f106101d4576101008083540402835291602001916101ff565b820191906000526020600020905b8154815290600101906020018083116101e257829003601f168201915b50505050508152602001600282015481525050815260200190600101906100fd565b50505050905090565b60036020528060005260406000206000915090505481565b60006102856040518060400160405280601081526020017f49206861766520256420706f7374732100000000000000000000000000000000815250600054610643565b600054905090565b42601e600360003373ffffffffffffffffffffffffffffffffffffffff1673ffffffffffffffffffffffffffffffffffffffff168152602001908152602001600020546102da9190610c6c565b1061031a576040517f08c379a000000000000000000000000000000000000000000000000000000000815260040161031190610d23565b60405180910390fd5b42600360003373ffffffffffffffffffffffffffffffffffffffff1673ffffffffffffffffffffffffffffffffffffffff1681526020019081526020016000208190555060016000808282546103709190610c6c565b925050819055506103b66040518060400160405280601281526020017f25732063726561746564206120706f7374210000000000000000000000000000815250336106df565b600260405180606001604052803373ffffffffffffffffffffffffffffffffffffffff16815260200183815260200142815250908060018154018082558091505060019003906000526020600020906003020160009091909190915060008201518160000160006101000a81548173ffffffffffffffffffffffffffffffffffffffff021916908373ffffffffffffffffffffffffffffffffffffffff160217905550602082015181600101908161046e9190610eef565b506040820151816002015550506064600154424461048c9190610c6c565b6104969190610c6c565b6104a09190610ff0565b6001819055506032600154116105cf576104d260405180606001604052806022815260200161129360229139336106df565b6000655af3107a4000905047811115610520576040517f08c379a000000000000000000000000000000000000000000000000000000000815260040161051790611093565b60405180910390fd5b60003373ffffffffffffffffffffffffffffffffffffffff1682604051610546906110e4565b60006040518083038185875af1925050503d8060008114610583576040519150601f19603f3d011682016040523d82523d6000602084013e610588565b606091505b50509050806105cc576040517f08c379a00000000000000000000000000000000000000000000000000000000081526004016105c39061116b565b60405180910390fd5b50505b3373ffffffffffffffffffffffffffffffffffffffff167fd8c86c7877c3f1f8a40af6cf64a11fe867af887f2a1ad31aac849e36730425b042836040516106179291906111c4565b60405180910390a250565b60006a636f6e736f6c652e6c6f679050600080835160208501845afa505050565b6106db82826040516024016106599291906111f4565b6040516020818303038152906040527fb60e72cc000000000000000000000000000000000000000000000000000000007bffffffffffffffffffffffffffffffffffffffffffffffffffffffff19166020820180517bffffffffffffffffffffffffffffffffffffffffffffffffffffffff838183161783525050505061077b565b5050565b61077782826040516024016106f5929190611233565b6040516020818303038152906040527f319af333000000000000000000000000000000000000000000000000000000007bffffffffffffffffffffffffffffffffffffffffffffffffffffffff19166020820180517bffffffffffffffffffffffffffffffffffffffffffffffffffffffff838183161783525050505061077b565b5050565b6107928161078a610622610795565b63ffffffff16565b50565b6107a0819050919050565b6107a8611263565b565b600081519050919050565b600082825260208201905092915050565b6000819050602082019050919050565b600073ffffffffffffffffffffffffffffffffffffffff82169050919050565b6000610801826107d6565b9050919050565b610811816107f6565b82525050565b600081519050919050565b600082825260208201905092915050565b60005b83811015610851578082015181840152602081019050610836565b60008484015250505050565b6000601f19601f8301169050919050565b600061087982610817565b6108838185610822565b9350610893818560208601610833565b61089c8161085d565b840191505092915050565b6000819050919050565b6108ba816108a7565b82525050565b60006060830160008301516108d86000860182610808565b50602083015184820360208601526108f0828261086e565b915050604083015161090560408601826108b1565b508091505092915050565b600061091c83836108c0565b905092915050565b6000602082019050919050565b600061093c826107aa565b61094681856107b5565b935083602082028501610958856107c6565b8060005b8581101561099457848403895281516109758582610910565b945061098083610924565b925060208a0199505060018101905061095c565b50829750879550505050505092915050565b600060208201905081810360008301526109c08184610931565b905092915050565b6000604051905090565b600080fd5b600080fd5b6109e5816107f6565b81146109f057600080fd5b50565b600081359050610a02816109dc565b92915050565b600060208284031215610a1e57610a1d6109d2565b5b6000610a2c848285016109f3565b91505092915050565b610a3e816108a7565b82525050565b6000602082019050610a596000830184610a35565b92915050565b600080fd5b600080fd5b7f4e487b7100000000000000000000000000000000000000000000000000000000600052604160045260246000fd5b610aa18261085d565b810181811067ffffffffffffffff82111715610ac057610abf610a69565b5b80604052505050565b6000610ad36109c8565b9050610adf8282610a98565b919050565b600067ffffffffffffffff821115610aff57610afe610a69565b5b610b088261085d565b9050602081019050919050565b82818337600083830152505050565b6000610b37610b3284610ae4565b610ac9565b905082815260208101848484011115610b5357610b52610a64565b5b610b5e848285610b15565b509392505050565b600082601f830112610b7b57610b7a610a5f565b5b8135610b8b848260208601610b24565b91505092915050565b600060208284031215610baa57610ba96109d2565b5b600082013567ffffffffffffffff811115610bc857610bc76109d7565b5b610bd484828501610b66565b91505092915050565b7f4e487b7100000000000000000000000000000000000000000000000000000000600052602260045260246000fd5b60006002820490506001821680610c2457607f821691505b602082108103610c3757610c36610bdd565b5b50919050565b7f4e487b7100000000000000000000000000000000000000000000000000000000600052601160045260246000fd5b6000610c77826108a7565b9150610c82836108a7565b9250828201905080821115610c9a57610c99610c3d565b5b92915050565b600082825260208201905092915050565b7f4d7573742077616974203330207365636f6e6473206265666f726520706f737460008201527f696e6720616761696e2e00000000000000000000000000000000000000000000602082015250565b6000610d0d602a83610ca0565b9150610d1882610cb1565b604082019050919050565b60006020820190508181036000830152610d3c81610d00565b9050919050565b60008190508160005260206000209050919050565b60006020601f8301049050919050565b600082821b905092915050565b600060088302610da57fffffffffffffffffffffffffffffffffffffffffffffffffffffffffffffffff82610d68565b610daf8683610d68565b95508019841693508086168417925050509392505050565b6000819050919050565b6000610dec610de7610de2846108a7565b610dc7565b6108a7565b9050919050565b6000819050919050565b610e0683610dd1565b610e1a610e1282610df3565b848454610d75565b825550505050565b600090565b610e2f610e22565b610e3a818484610dfd565b505050565b5b81811015610e5e57610e53600082610e27565b600181019050610e40565b5050565b601f821115610ea357610e7481610d43565b610e7d84610d58565b81016020851015610e8c578190505b610ea0610e9885610d58565b830182610e3f565b50505b505050565b600082821c905092915050565b6000610ec660001984600802610ea8565b1980831691505092915050565b6000610edf8383610eb5565b9150826002028217905092915050565b610ef882610817565b67ffffffffffffffff811115610f1157610f10610a69565b5b610f1b8254610c0c565b610f26828285610e62565b600060209050601f831160018114610f595760008415610f47578287015190505b610f518582610ed3565b865550610fb9565b601f198416610f6786610d43565b60005b82811015610f8f57848901518255600182019150602085019450602081019050610f6a565b86831015610fac5784890151610fa8601f891682610eb5565b8355505b6001600288020188555050505b505050505050565b7f4e487b7100000000000000000000000000000000000000000000000000000000600052601260045260246000fd5b6000610ffb826108a7565b9150611006836108a7565b92508261101657611015610fc1565b5b828206905092915050565b7f54686520636f6e747261637420646f6573206e6f74206861766520737566666960008201527f6369656e742066756e647320746f2070617920746865207072656d69756d2e00602082015250565b600061107d603f83610ca0565b915061108882611021565b604082019050919050565b600060208201905081810360008301526110ac81611070565b9050919050565b600081905092915050565b50565b60006110ce6000836110b3565b91506110d9826110be565b600082019050919050565b60006110ef826110c1565b9150819050919050565b7f497420776173206e6f7420706f737369626c6520746f2073656e64207468652060008201527f7072697a652e0000000000000000000000000000000000000000000000000000602082015250565b6000611155602683610ca0565b9150611160826110f9565b604082019050919050565b6000602082019050818103600083015261118481611148565b9050919050565b600061119682610817565b6111a08185610ca0565b93506111b0818560208601610833565b6111b98161085d565b840191505092915050565b60006040820190506111d96000830185610a35565b81810360208301526111eb818461118b565b90509392505050565b6000604082019050818103600083015261120e818561118b565b905061121d6020830184610a35565b9392505050565b61122d816107f6565b82525050565b6000604082019050818103600083015261124d818561118b565b905061125c6020830184611224565b9392505050565b7f4e487b7100000000000000000000000000000000000000000000000000000000600052605160045260246000fdfe257320776f6e2061207072697a65206f6620302e3030303120457468657265756d21a26469706673582212200d0b27b51852754f12ba1bc3d9813a4747f510d421c6ccdbc7afdbb56d55628164736f6c63430008130033",
  "linkReferences": {},
  "deployedLinkReferences": {}
}